:020000040800F2
:10000000882C0020D9010008190200081B020008F2
:100010001F02000823020008270200080000000059
:100020000000000000000000000000002B0200089B
:100030002D02000800000000B1330008430C000846
:10004000F3010008F3010008F3010008F3010008C0
:10005000F3010008F3010008F3010008F3010008B0
:10006000F3010008F3010008F3010008F3010008A0
:10007000F3010008F3010008F3010008F301000890
:10008000F3010008F3010008F3010008F301000880
:10009000F3010008F3010008F3010008F301000870
:1000A000F3010008F3010008F3010008F301000860
:1000B000F3010008F3010008F3010008F301000850
:1000C000F3010008F3010008F3010008F301000840
:1000D000F3010008F3010008F3010008F301000830
:1000E000F3010008F3010008F3010008F301000820
:1000F000F3010008F3010008F3010008F301000810
:10010000F3010008F3010008F3010008F3010008FF
:10011000F3010008F3010008F3010008F3010008EF
:10012000F3010008F3010008F3010008F3010008DF
:1001300000F002F800F03FF80AA090E8000C8244BA
:100140008344AAF10107DA4501D100F034F8AFF297
:10015000090EBAE80F0013F0010F18BFFB1A43F0A5
:10016000010318477038000090380000103A24BF8F
:1001700078C878C1FAD8520724BF30C830C144BF0C
:1001800004680C607047000000230024002500264E
:10019000103A28BF78C1FBD8520728BF30C148BFEA
:1001A0000B607047782903F0EB81002070471FB582
:1001B0001FBD10B510BD03F037FB1146FFF7F7FF69
:1001C00001F017F803F055FB03B4FFF7F2FF03BC8F
:1001D00000F06DFF30BF0000094880470948004724
:1001E000FEE7FEE7FEE7FEE7FEE7FEE7FEE7FEE7E7
:1001F000FEE7FEE704480549054A064B7047000044
:100200000F03000831010008881A0020882C002004
:10021000881C0020881C0020704700BFFEE700BF3C
:10022000FEE700BFFEE700BFFEE770477047000033
:100230000CB50020019000906C48006840F48030BC
:100240006A49086000BF6948006800F40030009007
:100250000198401C0190009818B90198B0F5A06F62
:10026000F1D16248006800F4003010B10120009024
:1002700001E0002000900098012843D15C4800680C
:1002800040F010005A4908600846006820F003005A
:1002900008600846006840F0020008605348406863
:1002A000524948600846406848600846406840F443
:1002B000806048600846406820F47C10486008462A
:1002C000406840F4E81048600846006840F08070DC
:1002D000086000BF4548006800F000700028F9D0B1
:1002E0004248406820F003004049486008464068A2
:1002F00040F00200486000BF3C48406800F00C003D
:100300000828F9D10CBD10B5FFF792FF10BD10B54C
:100310003648006840F001003449086008464068EB
:10032000344908403149486008460068324908406D
:100330002E4908600846006820F4802008600846BE
:10034000406820F4FE0048604FF41F008860FFF70B
:10035000DAFF4FF000602949086010BD10B5002198
:1003600000200022214B5B6803F00C0121B104291D
:1003700006D0082928D107E0214B224C236027E032
:100380001F4B204C236023E0184B5B6803F4701074
:10039000164B5B6803F48032022303EB904022B9D2
:1003A000194B4343174C23600DE0104B5B6803F47B
:1003B000003323B1144B4343124C236003E0104B32
:1003C0004343104C236003E00D4B0E4C236000BFF1
:1003D00000BF064B5B68C3F303130C4CE15C094B95
:1003E0001B68CB40074C236010BD0000001002408A
:1003F000002002400000FFF8FFFFF6FE08ED00E0DD
:1004000000127A000000002000093D0004000020D6
:1004100031490143314A1160704770B50021002312
:100420000F22C47804B32D4C246804F4E064C4F5AE
:10043000E064210AC1F10403CA40447804FA03F1DC
:100440008478144021430901254C0678A15504788D
:1004500004F01F050124AC4005786D11AD0005F1D5
:10046000E025C5F8004109E0047804F01F050124E7
:10047000AC401C4D0678761145F8264070BD1A4AEE
:100480000A400243154B1B1F1A60704739B1134ACB
:10049000121D12680243114B1B1D1A6006E00F4A21
:1004A000121D126882430D4B1B1D1A6070470428F1
:1004B00008D14FF0E021096941F004014FF0E0223A
:1004C000116107E04FF0E021096921F004014FF0CC
:1004D000E0221161704700000000FA050CED00E019
:1004E00000E400E080E100E080FFFF1F10B504465B
:1004F000CC48844208D10121042000F02DFB0021CA
:10050000042000F029FB46E0C748844208D10121BD
:10051000082000F021FB0021082000F01DFB3AE03C
:10052000C248844208D10121102000F015FB0021AF
:10053000102000F011FB2EE0BD48844208D10121BB
:10054000202000F009FB0021202000F005FB22E024
:10055000B848844208D10121402000F0FDFA002172
:10056000402000F0F9FA16E0B348844208D1012196
:10057000802000F0F1FA0021802000F0EDFA0AE07E
:10058000AE48844207D10121801500F0E5FA002130
:10059000A01500F0E1FA10BD10B50121084600F0E9
:1005A000DBFA0021012000F0D7FA10BD2DE9F0415F
:1005B000024600250026002000230024002791F891
:1005C00003C00CF00F0591F803C00CF0100CBCF147
:1005D000000F03D091F802C04CEA050591F800C065
:1005E000BCF1000F31D0146800202BE04FF0010C5B
:1005F0000CFA00F3B1F800C00CEA03069E4220D1C9
:1006000083004FF00F0C0CFA03F7BC4305FA03FC10
:100610004CEA040491F803C0BCF1280F06D14FF056
:10062000010C0CFA00FCC2F814C00AE091F803C0F7
:10063000BCF1480F05D14FF0010C0CFA00FCC2F8D8
:1006400010C0401C0828D1D31460B1F800C0BCF120
:10065000FF0F34DD546800202EE000F1080C4FF04D
:10066000010808FA0CF3B1F800C00CEA03069E4238
:1006700021D183004FF00F0C0CFA03F7BC4305FAAD
:1006800003FC4CEA040491F803C0BCF1280F05D127
:1006900000F1080C08FA0CF8C2F8148091F803C0B5
:1006A000BCF1480F07D100F1080C4FF0010808FA1F
:1006B0000CF8C2F81080401C0828CED35460BDE866
:1006C000F0814FF6FF710180022181700421C17019
:1006D00070470246002093680B400BB1012000E0F8
:1006E000002070470146886880B2704702460020AB
:1006F000D3680B400BB1012000E000207047014699
:10070000C86880B2704701617047416170470AB1A3
:10071000016100E041617047C16070474FF4803271
:100720000A438261816182618269826970470246FF
:100730000020434B18684FF68073184040EA0210BF
:1007400008433F4B186070473E49C8617047F0B599
:100750000A46002300240021002500F00046B6F1DF
:10076000004F02D1364EF16901E0354E7168C0F399
:10077000034583B200F44016B6F5401F08D121F0BE
:1007800070612F4E766826F070662D4F7E6012E005
:1007900000F48016B6F5801F06D1032606FA05F48C
:1007A000A14341F0706106E0460D360103FA06F6FA
:1007B000B14341F0706122B1460D360103FA06F6ED
:1007C000314300F00046B6F1004F02D11C4EF161FA
:1007D00001E01B4E7160F0BD30B500228B071C0F8D
:1007E0000F2303FA04F2164B08338C1053F824300D
:1007F0009343134C08348D1044F8253023468C1055
:1008000053F824308C07240F00FA04F423430C4CD3
:1008100008348D1044F8253030BD0A49DC310860B9
:100820007047000000080140000C0140001001402A
:100830000014014000180140001C0140002001404C
:100840000000014000002042DF48006840F0010045
:10085000DD49086008464068DC490840DA494860DC
:1008600008460068DA490840D74908600846006829
:1008700020F4802008600846406820F4FE004860AC
:100880004FF41F0088607047CF49096821F4803118
:10089000CD4A11601146096821F480211160B0F53C
:1008A000803F03D0B0F5802F0ED106E0C64909681D
:1008B00041F48031C44A116007E0C349096841F43A
:1008C000A021C14A116000E000BF00BF704710B511
:1008D00001460022002300204A11012A02D1BA4C0D
:1008E000236806E0022A02D1B74C236A01E0B64C25
:1008F000636A01F01F02012494401C400CB10120E6
:1009000000E0002010BD38B5002000900024002534
:1009100000BF3120FFF7DBFF05460098401C009028
:100920000098B0F5A06F01D0002DF2D03120FFF774
:10093000CEFF08B1012400E00024204638BD014666
:100940000020A14A106820F0F80040EAC1001060C1
:100950007047A04908607047024600209A4B5868CB
:1009600020F47C1042EA01031843974B586070470B
:1009700098490866704701460020934A506820F065
:1009800003000843506070478F48406800F00C0037
:100990007047014600208C4A506820F0F000084360
:1009A0005060704701460020874A506820F4E0609C
:1009B00008435060704701460020834A506820F485
:1009C000605040EAC1005060704729B17E4A527AB7
:1009D00002437D4B5A7204E07B4A527A82437A4B3F
:1009E0005A7270477B49D831086070470146002031
:1009F000754A506820F44040084350607047002119
:100A0000714A20321170704A82F82010012802D0F9
:100A100004280AD104E001216B4A2032117005E05C
:100A20000521694A2032117000E000BF00BF704705
:100A30006949086070476449096A0143624A116262
:100A40007047654944390860704730B5002100227D
:100A5000002400235C4D6D6805F00C0121B10429D0
:100A600005D0082923D105E05C4D056022E05B4DEF
:100A700005601FE0544D6D6805F47012524D6D68AD
:100A800005F48034022505EB92421CB9544D5543C0
:100A900005600BE04C4D6D6805F400351DB1504DFF
:100AA0005543056002E04D4D5543056002E04B4D56
:100AB000056000BF00BF444D6D6805F0F0010909F5
:100AC000484D6B5C0568DD4045603F4D6D6805F441
:100AD000E061090A434D6B5C4568DD4085603A4D35
:100AE0006D6805F46051C90A3E4D6B5C4568DD4098
:100AF000C560354D6D6805F44041890B3A4D6B5C1E
:100B0000C568B5FBF3F5056130BD29B12E4A5269C0
:100B100002432D4B5A6104E02B4A526982432A4B0F
:100B20005A61704729B1284A92690243264B9A615B
:100B300004E0254A92698243234B9A61704729B1A8
:100B4000214AD2690243204BDA6104E01E4AD2698D
:100B500082431D4BDA61704729B11B4AD2680243B8
:100B6000194BDA6004E0184AD2688243164BDA6007
:100B7000704729B1144A12690243134B1A6104E009
:100B8000114A12698243104B1A6170471249403969
:100B9000086070470F49C86470470B49C8717047B7
:100BA0000948406A40F08070074948627047014632
:100BB0000020054A92680A400AB1012000E00020A6
:100BC0007047014988727047001002400000FFF82A
:100BD000FFFFF6FE000042428004424200127A000B
:100BE00000093D00140000202400002010B500BFC3
:100BF0006FF00400FFF75BFC384800683849B0FB31
:100C0000F1F038490870354800683549B0FBF1F417
:100C100041F2883044430520334908804FF0E020FA
:100C2000006940F002004FF0E0210861084644618D
:100C3000006940F00100086110BD10B5FFF7D6FF54
:100C400010BD10B500F0A9FC00F0EFFD00F0C0FCF5
:100C500010BD70B5034600240021002000224FF093
:100C6000E02675691F4E367803FB06F44FF0E02648
:100C7000B16910E04FF0E026B06988420BD088429D
:100C800002D20E1A324402E02E1A0E4432440146B9
:100C9000A24200D300E0EDE700BF70BD70B504468E
:100CA00012480078012811D10F480088844206DDDF
:100CB0000D48008894FBF0F5284602F081FA0A48B6
:100CC000008894FBF0F100FB114084B24FF47A717C
:100CD00004FB01F0FFF7BDFF70BD00000000002025
:100CE00000127A00280000202A0000205E00002068
:100CF0002DE9F84307460C4615461E46DDF82080D0
:100D000001213846FFF70EFFADF800508DF8026064
:100D10008DF8038069462046FFF748FCBDE8F8835C
:100D2000B94A11880A131303C1F3032203EB022308
:100D3000C1F3031203EB021201F00F031A4491B244
:100D40004D22027043224270552282704322C270AB
:100D500061220271702242713A2282714FF47A72DA
:100D600091FBF2F232B14FF47A7291FBF2F230322F
:100D7000C27101E02022C2714FF47A7291FBF2F34A
:100D800002FB1312642392FBF3F2303202726422EC
:100D900091FBF2F302FB13120A2392FBF3F23032BF
:100DA00042720A2291FBF2F302FB1312303282727A
:100DB0004B22C27262220273704770B50446934898
:100DC00005682A4692A1204602F09EFB70BD934A18
:100DD0000A4002438D4B08331A60704710B5044631
:100DE0002046FFF715FB10BDF8B504460D46174623
:100DF0001E463046FFF7F2FF8DF800708DF8014077
:100E00008DF8025001208DF803006846FFF705FBBE
:100E1000F8BD00B5002082490861C860142048610F
:100E200000208861C8610846006840F00100086041
:100E3000084640687B490840794948600846006890
:100E400079490840764908600846006820F4802007
:100E500008600846406820F4FE0048600020886072
:100E600000214FF00060FFF7B2FF00BD10B56748EA
:100E70001030006840F00400644910310860684890
:100E8000C06940F080506649C8616848406840F4D5
:100E90008070664948600846006840F004000860B9
:100EA0000846006840F002000860FFF793F910BDA3
:100EB0005F4856490C31086070475949896941F0CB
:100EC0000101574A91615B49496821F0E061594A43
:100ED00051601146496841EA00615160704730B580
:100EE00004460025FFF795FF4D48006840F4803028
:100EF0004B49086000BF4A480068400C0028FAD0FF
:100F00004FF4806046494860A01EC4B2084640685D
:100F100040EA844048600846406840F480304860B9
:100F20004548006840F03200434908603C4800688A
:100F300040F080703A49086000BF39480068400EB0
:100F40000028FAD03648406840F002003449486032
:100F500005E033484068C0F3870505F00305022D1E
:100F6000F7D130BD01460A2091FBF0F200FB1210D0
:100F70000A2291FBF2F240EA0210C0B27047014629
:100F800001F00F000A1102EB820200EB4200C0B236
:100F9000704701464FF47A7091FBF0F000034FF474
:100FA0007A7291FBF2F302FB1312642392FBF3F2C9
:100FB00040EA02201A4691FBF2F302FB13120A23C5
:100FC00092FBF3F240EA02101A4691FBF2F302FBA5
:100FD0001312104380B27047014608134FF47A721F
:100FE0005043C1F3032202EBC20303EB021200EBF6
:100FF0008200C1F3031202EB820200EB420001F017
:101000000F02104480B27047E0F7FF1F00ED00E0D0
:101010004350552049443A253038580080FFFF1F7F
:10102000001002400000FFF8FFFFF6FE00700040D5
:101030000400FA0500000140002002401D4A126829
:1010400002F0807242B100BF4FF060421268002A85
:10105000FAD04FF0604318707047014600E000BFBF
:1010600000BF15480068154A904201D1002000E0F9
:1010700001200128F3D100BF801E0F4A12680F4BD8
:101080009A4204D00C4A10681A460B4B1A6000BFF3
:10109000704701464FF0FF30704730B504460025D9
:1010A00029462046FFF7CAFF30BD0020704700BF29
:1010B000FEE70000FCED00E02C000020A55AA55A38
:1010C00011E000205749086040F6B830FFF7E6FD10
:1010D00001205549C1F8980140F6B830FFF7DEFD10
:1010E00052A002F005FAECE711E000204D4908603B
:1010F0004FF4FA60FFF7D2FD01204B49C1F8980187
:1011000041F28830FFF7CAFD4BA002F0F1F9ECE79D
:1011100011E000204349086041F27070FFF7BEFD06
:1011200001204149C1F8980140F6B830FFF7B6FDFB
:1011300044A002F0DDF9ECE711E000203949086035
:1011400040F6B830FFF7AAFD01203749C1F89801F1
:101150004FF4FA60FFF7A2FD3DA002F0C9F9ECE7F9
:1011600012E000202F49091F08604FF4E160FFF7EB
:1011700095FD01202C49C1F894014FF4FA60FFF766
:101180008DFD36A002F0B4F9EBE770B504460025FA
:1011900000BF02F0EDF8054633A002F0A9F90423E0
:1011A000394A0021AFF2470001F0A4FC0523374A79
:1011B0000021AFF27B0001F09DFC0623344A0021A0
:1011C000AFF2B30001F096FC0723324A0021AFF2E0
:1011D000E70001F08FFC08232F4A0021AFF21F1017
:1011E00001F088FC0A2001F003FF284602F0C4F851
:1011F00070BD10B5FFF721FD4FF4A060FFF7EEFDC5
:1012000000F060F825A002F073F900F0B0F90A23AD
:101210002B4A0021AFF28D0001F06CFC00F0CEFAF9
:10122000002010BD980123420000234275736572AF
:101230005F7461736B350A00757365725F746173F7
:101240006B340A00757365725F7461736B330A00E7
:10125000757365725F7461736B320A0075736572C2
:101260005F7461736B310A000D0A207169746173D8
:101270002073797374656D2072756E20616C6C20BB
:101280007461736B0D0A0000840200208403002047
:101290008404002084050020840600200D0A2073A9
:1012A000797374656D20686172647761726520611D
:1012B000726520616C6C204F4B210D0A000000000C
:1012C0008401002008B51020022320220949009043
:1012D0004020FFF70DFD1020022340220549009019
:1012E0001046FFF705FD0120034908600349C1F8D6
:1012F000980108BD001801409401234200002342D8
:101300007CB5002514E06946284601F031FE06460A
:1013100066B9FE4850F8254044B1012C06D0D4E906
:10132000020100EB810060640198A064681CC5B2F2
:101330003F2DE8DD7CBD00BF00BF02E0282001F0AA
:101340003FFFF34800780028F8D0F2480068642195
:10135000B0FBF1F0EF4908600846006828B90020AA
:10136000ED490870FF2001F043FE02F001F8044649
:10137000E848006864214843E8490860204601F0D5
:10138000FBFF00BF01F0F4FF0446E4480068E449B5
:1013900008600020E1490860204601F0EDFFE048C8
:1013A0000068DC490968B0FBF1F0C0F16400DA497B
:1013B000087002F042F8FFF7A3FF142001F000FFCD
:1013C000E0E700B587B0032000218022D54BCDE9AE
:1013D0000132CDE903104FF6FE703E23D24A009051
:1013E000AFF2AD0001F0DDFB06AAD0A13E2001F076
:1013F00041FD07B000BD002400BF00BF01F0B8FFF1
:101400000446C6480068401CC4490860204601F0F4
:10141000B3FF02F010F8F1E700B587B00320002118
:101420008022C64BCDE90132CDE903104FF6FF70A3
:101430003F23C34A0090AFF2410001F0B2FB06AA7D
:10144000C0A13F2001F016FD07B000BD04E000225E
:1014500000F8012B4A1E91B20029F8D1704770B5EF
:10146000C821BC48FFF7F2FF00230FE0581C85B2EB
:1014700003EB8300B74901EB800405EB850001EB2A
:101480008006002020706660581C83B2092BEDD3C3
:1014900003EB8300AF4901EB800400202070606003
:1014A0000846AD49086070BD70B540F62831AB48BC
:1014B000FFF7CCFF4FF480719448FFF7C7FF00247B
:1014C00013E0601CC5B2C4EBC40000EB4000A349AC
:1014D00001EB8003C5EBC50000EB400001EB80068B
:1014E0005E619FA0D864601CC4B2212CE9D3C4EB18
:1014F000C40000EB4000994901EB800300205861D3
:1015000097A0D864002097490860944896490860DD
:1015100070BD0021954A1170002004E00021944A1A
:101520001154411CC8B20828F8D30021914A117007
:10153000914A1170914A1160914A116070470020E0
:101540009049086090490870904908709049087067
:1015500090490870904908607049086070490860B7
:101560006C4908606A4908708C490870704710B56A
:1015700001F052FFFFF7E3FFFFF7CBFFFFF794FF08
:10158000FFF76DFF00F0FAFE01F0F1F9FFF744FFFD
:10159000FFF717FF01F04CFF10BD7E4800780128CF
:1015A00008D179480078FF2804D277480078401C99
:1015B0007549087070477A496C4A1278885C6C49A2
:1015C000095C774A515C01EBC0016B4A11707047AE
:1015D00010B500246F480078012830D101F0C8FE12
:1015E00004466948007820B167480078401E664983
:1015F000087065480078F8B964480078E0B9FFF7EA
:10160000DAFF42485C49097850F821005B490860DC
:10161000594800785749097888420DD057480068E2
:10162000806B401C5549096888635B480068401C12
:101630005949086001F0B7FE204601F09DFE10BD3B
:1016400010B5002453480078012811D101F090FE14
:1016500004464D48007840B94C480078FF2804D231
:101660004A480078401C49490870204601F084FE31
:1016700010BD10B5002401F07BFE044642480078FE
:10168000F8B942480078E0B9FFF795FF1F483A499A
:10169000097850F821003949086037480078354901
:1016A000097888420DD035480068806B401C33496A
:1016B0000968886338480068401C3749086001F0B1
:1016C0006DFE204601F058FE10BD10B500243148D3
:1016D0000078012871D101F04BFE04462A480078B9
:1016E00080B92A48007870B128480078401E274900
:1016F00008700846007838B9204601F03DFEFFF733
:10170000B8FF5AE056E051E04CE00000A00B00208A
:10171000500000204800002044000020600000200D
:101720004C000020A00700209C09002075432F4F8B
:10173000532D49492053746174000000A009002012
:101740009C0B002075432F4F532D49492049646C51
:1017500065000000880600203C000020A00C00204E
:101760003F000000700000206800002055000020AD
:101770005600002053000020540000206C00002080
:101780006400002080000020510000205200002052
:101790005F0000205E000020380000207C00002058
:1017A0009A380008204601F0E7FD06E0204601F0E7
:1017B000E3FD02E0204601F0DFFD10BD10B5EE486C
:1017C000007890B9FFF7F7FEEC480078EC49087014
:1017D000EC48EA49097850F82100EB4908600846CE
:1017E0000068EA49086001F0CAFD10BD10B5002488
:1017F000022001F0E5FC01F0BBFD04460020E449B5
:101800000860204601F0B8FD142001F0D9FC01F079
:10181000AFFD0446DE480068DE4908600120DE496D
:101820000870204601F0A8FD10BD70B5002601F03B
:1018300053FE01F09DFD0646D8480068401CD7497C
:101840000860304601F098FDCB480078012853D15C
:10185000D348007820B1012804D0022809D103E040
:1018600001250BE0002509E001250120CC49087085
:1018700004E001250020CA49087000BF00BF05B977
:1018800070BDC848046833E001F072FD0646E06AA6
:1018900050B3E06A401EE062E06A28BB94F8300072
:1018A00000F0370040B114F8300F00F0C80020708D
:1018B00001206070303C02E0002084F8310094F890
:1018C000300000F0080078B93434A078B6490978BF
:1018D0000843B54908702078B449085C617808432A
:1018E00014F83419B14A50546469304601F044FD8B
:1018F00094F832003F28C7D100BFC1E747F2172054
:101900007047704710B590F8342001F10B039B5CD1
:1019100090F83540A34301F10B04A35423469B5C8C
:1019200023B98B7A90F83640A3438B7210BD2DE912
:10193000F04F05460F4690469946A87A9C490E5CA2
:1019400005F10B00805D11F800B00BEBC60000F054
:10195000FF0A8C4850F82A4000202034E0602760BD
:10196000207C20EA0800207484F81190207C203C20
:1019700000F0080068B994F836008B4909780843EC
:10198000894908708948805D94F835100843874973
:10199000885529462046FFF7B5FF5046BDE8F08F31
:1019A00010B57A4A1268D061784A126892F83430D9
:1019B00000F10B02D25C754B1B6893F835301A436B
:1019C000724B1B6893F8344000F10B031A55827A6E
:1019D0006E4B1B6893F836301A4382726B4A12685A
:1019E00092F83410714A525C684B1B6893F835309A
:1019F0009A436E4B5A541A46525C42B9634A126873
:101A000092F83630684A12789A43674B1A7010BDC4
:101A1000014600228A72002005E0002301F10B023A
:101A20001354421CD0B20828F7D3704705E011F8D0
:101A3000013B00F8013B531E9AB2002AF7D17047D0
:101A40000146002002E0491C421CD0B20A78002A5C
:101A5000F9D170472DE9F84F05460F469046994653
:101A6000DDE90AAB0020009001F082FC00905148B3
:101A70000468002C7BD0183454F8040C4D490860DD
:101A8000009801F079FC44F8187CA57600202076B7
:101A90006076606144F814BC44F80CAC44F8108CD7
:101AA0000C9824F8080C24F8069C0020E077E81035
:101AB000207705F00700E076217F01208840A0779D
:101AC000E17E01208840607700206060E060A060D7
:101AD0002062A0626062E0622063AFF27C306063EB
:101AE000183C002606E0002104F1500040F82610C2
:101AF000701CC6B2012EF6DB204601F0ECFC01F0B2
:101B000037FC00901F4840F82540009801F034FC55
:101B1000204601F08EFC01F02BFC0090214800686B
:101B200060610020A0611F48006810B11D48006876
:101B300084611C4804603434A0781B490978084348
:101B40001949087020781949085C6178084314F82D
:101B50003419164A505418480078401C1649087029
:101B6000009801F009FC0020BDE8F88FFFE700981D
:101B700001F002FC4220F7E75E0000205400002044
:101B800053000020A00B00206C0000206400002007
:101B9000600000204800002050000020800000204D
:101BA0007400002070000020550000205600002026
:101BB0009A380008680000205F0000202DE9F05FDF
:101BC00004460F4691461E464FF0000B207805282C
:101BD00004D0012030700020BDE8F09F09F0800A99
:101BE000BAF1000F04D029F080094FF0010801E09C
:101BF0004FF000080020307001F0BAFB8346B9F1C5
:101C0000000F2CD0B9F1010F3BD0B9F1020F03D076
:101C1000B9F1030F46D111E0208900EA0705BD4262
:101C200006D1B8F1010F05D12089A843208101E038
:101C300070203070584601F09FFB3AE0208900EA9E
:101C4000070535B1B8F1010F05D12089A8432081DE
:101C500001E070203070584601F08EFB29E02089A9
:101C600027EA0005BD4206D1B8F1010F05D1208950
:101C70002843208101E070203070584601F07CFB41
:101C800017E0208927EA000535B1B8F1010F05D129
:101C900020892843208101E070203070584601F0EF
:101CA0006BFB06E0584601F067FB00256F203070A3
:101CB00000BF00BF28468FE72DE9F04106460D46DC
:101CC0000027FC48007820B1102028700020BDE8D3
:101CD000F08101F04DFB0746F748046884B10068C5
:101CE0004068F5490860052020702681002060606A
:101CF000F2A0E060384601F03FFB0020287004E0CD
:101D0000384601F039FB722028702046DFE730B5F5
:101D100001464A6808682AB9CC68606028B1002585
:101D2000456002E0106000B142608B6800255D6292
:101D300030BD2DE9F041064688461746B4680020BC
:101D400044F82C0F24F8048C207900F0DF00207177
:101D5000677120792C3C88B93434A078D849097847
:101D60000843D74908702078D649085C6178084351
:101D700014F83419D34A5054012500E000253046A8
:101D8000FFF7C5FF2846BDE8F0812DE9F04704467E
:101D9000894615464FF0000AC648007820B10F204A
:101DA00028702046BDE8F0872078052803D0012060
:101DB00028702046F6E701F0DBFA8246606808B139
:101DC000012700E00027B9F1000F03D0B9F1010F9E
:101DD0003DD119E08FB9B9A0E06000202070B6486D
:101DE0000068606000202081B3480460504601F024
:101DF000C3FA00202870002605E0504601F0BCFA26
:101E000049202870264629E0D4F8048006E0022202
:101E100000214046FFF78DFFD8F80080B8F1000F91
:101E2000F5D1A6A0E06000202070A34800686060A3
:101E300000202081A0480460504601F09DFA012F47
:101E400001D1FFF716FC00202870002606E050465E
:101E500001F092FA07202870264600BF00BF3046E6
:101E6000A0E72DE9F04105460E46144600279148AB
:101E7000007820B1112020700020BDE8F08101F031
:101E800077FA07462878052806D0384601F074FA14
:101E9000012020700020F0E7E86830603068FFF72C
:101EA000CFFD8046384601F067FA0020207040469A
:101EB000E3E72DE9F04105460E46144600277D482C
:101EC000007818B112202070BDE8F08101F050FABE
:101ED00007462878052805D0384601F04DFA01203C
:101EE0002070F1E7EE60384601F046FA00202070DD
:101EF00000BFE9E7F0B51446059E734F3F6897F8B9
:101F0000307047F02007DFF8C0C1DCF800C08CF863
:101F100030700027DFF8B0C1DCF800C08CF83170F9
:101F2000694F3F68FE62684F3F6879620C828B742C
:101F3000654F3F688F6047680F6000274F60C8603B
:101F4000456805B1696041605F4F3F6897F834208C
:101F50005C4FBF5CDFF870C1DCF800C09CF835C096
:101F600027EA0C07DFF85CC10CF802706746BF5C1B
:101F70005FB9554F3F6897F836C0514F3F7827EA11
:101F80000C07DFF83CC18CF80070F0BD2DE9F04F74
:101F900089B005460F4691469A46129E002002904F
:101FA0004448007828B102203070002009B0BDE814
:101FB000F08F4648007818B10D2030700020F5E70A
:101FC0002878052803D0012030700020EEE709F0C2
:101FD000800BBBF1000F04D009F07F094FF001081E
:101FE00001E04FF0000801F0C3F90290B9F1000FD1
:101FF0004AD0B9F1010F78D0B9F1020F03D0B9F18D
:10200000030F71D120E0288900EA0704BC420FD1F8
:10201000B8F1010F02D12889A04328812A4800681D
:102020000485029801F0A8F9002030702046BDE731
:102030004B463A4604A92846CDF800A0FFF75AFFC0
:10204000029801F099F978E0288900EA07047CB148
:10205000B8F1010F02D12889A04328811A480068ED
:102060000485029801F088F90020307020469DE731
:102070004B463A4604A92846CDF800A0FFF73AFFA0
:10208000029801F079F958E0288927EA0004BC4257
:102090001ED1B8F1010F02D12889204328810A48B6
:1020A00000680485029801F067F90020307020462E
:1020B0007CE71AE051000020400000203F000000B3
:1020C000550000205600002064000020520000202F
:1020D0004B463A4604A92846CDF800A0FFF70AFF70
:1020E000029801F049F928E01FE0288927EA000456
:1020F0007CB1B8F1010F02D1288920432881B3486F
:1021000000680485029801F037F9002030702046FD
:102110004CE74B463A4604A92846CDF800A0FFF705
:10212000E9FE029801F028F907E0029801F024F98D
:1021300000246F203070204638E700BFFFF799FA7F
:1021400001F016F90290A148006890F8310020B320
:102150009E48006890F83100039000209B49096870
:1021600081F8310004A8FFF7D2FD002097490968E3
:1021700081F83000029801F0FFF80024039801284C
:1021800005D0022802D10E20307003E000BF0A20E3
:10219000307000BF00BF204608E78C480068048DFF
:1021A000B8F1010F1ED1B9F1000F0ED0B9F1010F36
:1021B0000CD0B9F1020F03D0B9F1030F0AD100E03E
:1021C00000BF2889A04328810BE000BF2889204355
:1021D000288106E0029801F0CFF86F2030700020CF
:1021E000E4E600BF029801F0C7F8002030702046F6
:1021F000DCE670B5002501F0BBF8054673480068C1
:10220000048D284601F0B8F8204670BD2DE9FC5F2A
:102210000446894692461E460020009020780528F4
:1022200004D0012030700020BDE8FC9F01F0A0F830
:102230000090BAF1000F03D0BAF1010F0AD104E007
:10224000208920EA090020810BE0208940EA09006A
:10225000208106E0009801F08FF871203070002096
:10226000E2E700BF4FF0000B656859E0A87C50B36F
:1022700001283BD0022802D0032848D112E020894F
:10228000298A00EA0107288AB8420AD10022394681
:102290002846FFF74EFD8046B8F1010F01D14FF0FF
:1022A000010B3BE02089298A00EA010757B100228F
:1022B00039462846FFF73DFD8046B8F1010F01D1B0
:1022C0004FF0010B2AE0288A218920EA0107288A99
:1022D000B8420AD1002239462846FFF72AFD804637
:1022E000B8F1010F01D14FF0010B17E0288A2189C5
:1022F00020EA010757B1002239462846FFF719FDA9
:102300008046B8F1010F01D14FF0010B06E00098B3
:1023100001F032F86F203070002085E700BF2D6893
:10232000002DA3D1009801F027F8BBF1010F01D1D6
:10233000FFF79FF901F01CF80090208901900098A8
:1023400001F01AF80020307001986DE72DE9F04196
:1023500004460D4600272078052804D00120287067
:102360000020BDE8F08101F003F8074626893846D1
:1023700001F002F8002028703046F2E72DE9F04124
:1023800050211348FFF762F800250EE0681C86B262
:102390000F4800EB051400EB061700202070676063
:1023A000AFF2E820E060681C85B2042DEED3084847
:1023B00000EB0514002020706060AFF20030E06098
:1023C000034804490860BDE8F08100006400002073
:1023D00050070020400000202DE9F04106460D4640
:1023E0004FF000083078022804D001202870002027
:1023F000BDE8F08100F0BCFF80467468E08A78B1E7
:102400002169081D20610F68E08A401EE082A168F2
:102410002069884201D1606820610020287002E0B4
:102420001F2028700027404600F0A6FF3846DFE74F
:102430002DE9F04106460F464FF00008F7480078B6
:1024400010B10020BDE8F08100F092FF8046F44812
:102450000568006820B1F24800684068F0490860EB
:10246000404600F089FF3DB300F082FF8046ED4812
:102470000468C4B100680068EA490860404600F09A
:102480007BFF666006EB8700A060E6602661A7829E
:102490000020E08202202870002028816C602846FD
:1024A000FFF7B6FA08E0DE4800686860DC480560BF
:1024B000404600F061FF00252846C3E72DE9F047BC
:1024C0000446894615464FF0000A2078022804D0B9
:1024D000012028702046BDE8F087D048007818B168
:1024E0000F2028702046F6E700F042FF8246A07ACF
:1024F00010B14FF0010801E04FF00008B9F1000FF2
:1025000003D0B9F1010F45D11FE0B8F1000F15D18B
:102510006668C44800683060C248066000202070C9
:10252000BF480068606000202081BD4804605046BC
:1025300000F022FF00202870002705E0504600F040
:102540001BFF4920287027462BE005E002230422C8
:1025500000212046FFF7EBF9A07A0028F6D1666843
:10256000B04800683060AF48066000202070AC487A
:102570000068606000202081A9480460504600F097
:10258000FBFEB8F1010F01D1FFF773F800202870AE
:10259000002706E0504600F0EFFE0720287027468F
:1025A00000BF00BF384696E770B50546002600F02C
:1025B000DFFE06466C686068E060606820610020AD
:1025C000E082304600F0D8FE002070BD2DE9F047D3
:1025D0000746884615464FF000093878022804D08F
:1025E000012028700020BDE8F0878C48007818B1E1
:1025F000022028700020F6E78B48007818B10D20E3
:1026000028700020EFE700F0B3FE81467C68E08A86
:1026100098B12169081D20610E68E08A401EE082A1
:10262000A1682069884201D160682061484600F0B5
:10263000A3FE002028703046D5E77C48006890F85B
:10264000300040F004007949096881F8300000202A
:102650007649096881F8310074480068C0F82C8018
:102660003846FFF79DF9484600F086FEFFF701F86F
:1026700000F07EFE81466D48006890F8310020B180
:1026800001280DD002280AD105E068480068066AD2
:10269000002028700DE000260E20287009E000BF01
:1026A000394662480068FFF72DF900260A20287095
:1026B00000BF00BF00205D49096881F830005B4918
:1026C000096881F8310059490968C86157490968A2
:1026D0000862484600F050FE304684E72DE9F0419C
:1026E00004460F4615464FF000082078022804D013
:1026F000012028700020BDE8F08100F039FE8046FE
:10270000A07A20B300267FB1012F0CD107E002236D
:10271000042200212046FFF70AF9701CC6B2A07AF5
:102720000028F4D109E000BF022304220021204642
:10273000FFF7FDF8701CC6B200BF00BF404600F0B6
:102740001BFEFEF796FF0E2028703046D3E740466A
:1027500000F012FE0020287000BFCCE72DE9F04108
:1027600005460E4600272878022802D00120BDE841
:10277000F08100F0FDFD0746A87A60B10023042235
:1027800031462846FFF7D3F8384600F0F5FDFEF74E
:1027900070FF0020EBE76C68E08AA18A884204DBC6
:1027A000384600F0E9FD1E20E1E7E168081DE06021
:1027B0000E60E08A401CE082D4E90210884201D118
:1027C0006068E060384600F0D7FD0020CFE72DE9D3
:1027D000F04105460E4600272878022802D0012045
:1027E000BDE8F08100F0C4FD0746A87A60B100237F
:1027F000042231462846FFF79AF8384600F0BCFD1F
:10280000FEF737FF0020EBE76C68E08AA18A884278
:102810000EDB384600F0B0FD1E20E1E7510000203D
:102820003C000020780000205200002064000020BE
:1028300061682069884201D1A06820612069001F79
:10284000206120690660E08A401CE082384600F082
:1028500093FD0020C4E72DE9F04105460F461646DA
:102860004FF000082878022802D00120BDE8F0814E
:1028700000F07EFD8046A87AE8B106F0010050B174
:1028800005E00023042239462846FFF750F8A87ACD
:102890000028F6D105E00023042239462846FFF738
:1028A00046F8404600F068FD06F0040008B9FEF75F
:1028B000E0FE0020DAE76C68E08AA18A884204DB47
:1028C000404600F059FD1E20D0E706F0020058B146
:1028D00061682069884201D1A06820612069001FD9
:1028E00020612069076009E0E168081DE0600F6071
:1028F000D4E90210884201D16068E060E08A401C9F
:10290000E082404600F038FD0020AFE72DE9F047B7
:1029100005460C464FF0000A2878022802D0012014
:10292000BDE8F08700F024FD8246A87A207405F106
:102930000B0804F10809002705E018F8010B09F855
:10294000010B781CC7B2082FF7D36E68F08A18B154
:1029500030690068206001E000202060F08AA080DB
:10296000B08AE080504600F007FD0020D8E72DE94E
:10297000F04160211048FEF769FD00240DE0601C65
:1029800086B204EB44000C4901EBC00506EB46009F
:1029900001EBC0072F60601C84B2032CEFD304EB63
:1029A0004400054901EBC0050020286008460349A2
:1029B0000860BDE8F0810000C81700207800002002
:1029C0002DE9FF5F814688460020009000F0D0FC92
:1029D0000090F94850F8280030B1009800F0CCFC85
:1029E000282004B0BDE8F09FB9F1FF0F03D1F348F0
:1029F000006890F83290F04850F8294024B90098C7
:102A000000F0BAFC2920ECE7012C04D1009800F07A
:102A1000B3FC4320E5E74FEAE80708F0070003901E
:102A20000120B84000F0FF0A01210398814001F025
:102A3000FF0B0020E04941F82900084640F82840F3
:102A400014F8346FA07802906078343C0190DC4830
:102A5000815D01980140D1B1D948805D01998843D9
:102A6000D74988550846805D28B9D648007802992C
:102A70008843D4490870D348007840EA0A00D14915
:102A80000870CF48C05D40EA0B00CD49C855E569E4
:102A9000D5B105F10B00805D0199884305F10B016B
:102AA00088550846805D18B9A87A02998843A872AB
:102AB000A87A40EA0A00A87205F10B00C05D40EA5E
:102AC0000B0005F10B01C85584F8328084F834708E
:102AD000039884F8330084F836A084F835B0009861
:102AE00000F04AFCB8480078012801D1FEF7C1FD8A
:102AF000002076E72DE9FE4F06460F4690461C461D
:102B00004FF0000900F034FC8146B048007828B14D
:102B1000484600F031FC3C20BDE8FE8FA64850F846
:102B2000240060BB0120A44941F82400484600F07D
:102B300023FC002342463946304600F07FFC8246A3
:102B40000020009001900346024651460290204624
:102B5000FEF780FF054635B99B48007801280CD167
:102B6000FEF787FD09E000F003FC81460020924952
:102B700041F82400484600F0FFFB2846CCE74846D1
:102B800000F0FAFB2820C7E702F0010343B102F08E
:102B900002032BB102E0491E002308C00029FAD12C
:102BA00070472DE9F04F85B081468A4693461C4612
:102BB000DDE90F78129D0020039000F0D9FB03900F
:102BC0008248007830B1039800F0D6FB3C2005B075
:102BD000BDE8F08F784850F8240088BB0120764982
:102BE00041F82400039800F0C7FB2A4641463846C6
:102BF000FFF7CAFF2B465A465146484600F01EFCD6
:102C000004901198CDE9008002953A4620460E9B2B
:102C10000499FEF71FFF064636B96B480078012875
:102C20000CD1FEF726FD09E000F0A2FB0390002086
:102C3000614941F82400039800F09EFB3046C6E746
:102C4000FFE7039800F098FB2820C0E72DE9F0414A
:102C5000054600275D48007810B14020BDE8F081AE
:102C60003F2D01D13E20F9E700F082FB0746FF2D02
:102C700003D15248006890F832504F4850F8254030
:102C800024B9384600F078FB4320E7E7012C04D153
:102C9000384600F071FB3D20E0E714F8340F484956
:102CA000085C617888432178454A505414F8340907
:102CB0001146085C30B994F83610424800788843D1
:102CC00040490870E06918B12046E169FEF71AFE34
:102CD000666A16B13046FFF71AF80020E06284F801
:102CE000300084F831003A480078FF2804D2384890
:102CF0000078401C36490870384600F03DFBFEF76E
:102D000000FE00F035FB07463148007820B130481E
:102D10000078401E2E490870204600F08BFB2D489D
:102D20000078401E2B4908700020234941F82500F7
:102D3000A06930B90020616988612749606908602D
:102D400005E0D4E905014861D4E90510886123480C
:102D5000006860612148046021A0E064384600F00A
:102D60000BFB19480078012801D1FEF782FC0020F6
:102D700074E72DE9F041044600273F2C02D13E20A4
:102D8000BDE8F081FF2C0BD100F0F2FA07460B48AA
:102D9000006890F83760384600F0EEFA3046EFE70A
:102DA00000F0E6FA0746044850F82450D5B93846F2
:102DB00000F0E2FA4320E3E7A00B002064000020CB
:102DC00056000020550000205E0000205100002029
:102DD000520000205F0000207000002068000020EA
:102DE0003F000000012D04D1384600F0C5FA3D2017
:102DF000C6E73F2085F83700384600F0BDFA0020CE
:102E0000BEE72DE9F04706460F4614464FF000088E
:102E1000E448007820B1112020700020BDE8F08740
:102E200000F0A6FA8046FF2E03D1DF48006890F834
:102E30003260DE4850F8265035B9404600F09CFA22
:102E4000432020700020E9E7012D06D1404600F024
:102E500093FA432020700020E0E7E86C386038687F
:102E6000FEF7EEFD8146404600F086FA0020207015
:102E70004846D3E72DE9F04106460F4614464FF089
:102E80000008C848007818B112202070BDE8F08111
:102E900000F06EFA8046FF2E03D1C348006890F818
:102EA0003260C24850F826502DB9404600F064FA0E
:102EB00043202070EAE7012D05D1404600F05CFA7E
:102EC00043202070E2E7EF64404600F055FA00200E
:102ED000207000BFDAE770B50546002600F048FA1A
:102EE0000646B24850F8254024B9304600F044FA6E
:102EF000462070BD012C04D1304600F03DFA43203D
:102F0000F7E794F8300000F0080060B314F8300FD1
:102F100000F0F700207014F83009F8B9E06AC8B979
:102F20003434A078A24909780843A1490870207870
:102F3000A049085C6178084314F834199D4A50543C
:102F4000304600F019FA9C480078012809D1FEF7B4
:102F500090FB06E0304600F00FFA02E0304600F049
:102F60000BFA0020C5E7304600F006FA4420C0E71F
:102F70002DE9F04707460D464FF0000A0020286073
:102F8000686000F0F5F98246FF2F03D1864800689B
:102F900090F83270854850F827402CB9504600F020
:102FA000EBF94320BDE8F087012C04D1504600F036
:102FB000E3F94320F6E7207C00F0010020B95046F9
:102FC00000F0DAF94520EDE70026D4F80C90D4F8AB
:102FD0000880504600F0D0F900E0761C58F8041B39
:102FE0000029FAD02E60A9EB060068600020D9E71E
:102FF0002DE9F04105464FF0000800F0B9F9804690
:10300000FF2D05D16848006890F83250012608E08D
:103010006548006890F83200A84201D1012600E01E
:103020000026624850F825402CB9404600F0A4F92B
:103030004820BDE8F081012C04D1404600F09CF905
:103040004320F6E794F834705A48C05D94F8351080
:1030500088435849C8550846C05D30B994F83610C1
:103060005348007888435249087094F8300040F083
:10307000080084F83000404600F07EF9012E01D1AE
:10308000FEF7F7FA0020D4E72DE9F04105460E4699
:10309000002700F06DF90746FF2D03D14248006874
:1030A00090F83250414850F825402CB9384600F08D
:1030B00063F92920BDE8F081012C04D1384600F0E5
:1030C0005BF94320F6E7542221463046FEF7AEFC7A
:1030D000384600F051F90020ECE72DE9F0470446AE
:1030E0000E4617464FF0000900F042F98146FF2CCA
:1030F00002D12D48056802E02C4850F8245005F113
:10310000500050F82680484600F036F9002038700C
:103110004046BDE8F08770B50446002600F028F967
:10312000064626480078012806DB962020703046A7
:1031300000F022F9012070BD204805780078401C7D
:103140001E490870304600F017F90020207028460C
:10315000F1E72DE9F04704460E46174698464FF032
:10316000000900F005F98146FF2C02D10E480568E0
:1031700002E00E4850F8245005F1500040F8267047
:10318000484600F0F9F8002088F80000BDE8F08714
:1031900010B50548006800F04FF9FF20FFF756FD15
:1031A00010BD00005100002064000020A00B002092
:1031B00055000020560000205E0000207C0000200A
:1031C00070B5054600266348007800B170BD6248BE
:1031D000007800B1FAE71DB300F0CAF806465F4870
:1031E000006890F834405E48005D5C49096891F8D9
:1031F000351088435A4908550846005D40B957487C
:10320000006890F836105748007888435549087090
:1032100052480068C562304600F0AEF8FEF729FA61
:1032200000BFD3E72DE9F04104460D4616461F4680
:103230004848007810B15520BDE8F0814648007834
:1032400008B13220F8E7B81CC82148434FF47A711E
:10325000B0FBF1F14FF461606043C5EB051200EB88
:103260008200304400EBC00202EB001001EBC0080A
:103270004046FFF7A5FF0020DEE770B505460026B3
:103280003F2D01DB2A2070BD00F072F8064636485B
:1032900050F8254024B9304600F06EF84320F2E79C
:1032A000012C04D1304600F067F84320EBE7E06AD8
:1032B00020B9304600F060F85020E4E70020E062DA
:1032C00094F8300000F0370040B114F8300F20F0CF
:1032D0003700207001206070303C02E0002084F84C
:1032E000310094F8300000F00800A8B93434A07818
:1032F0001C49097808431B49087020781849085C64
:103300006178084314F83419154A5054304600F0D7
:1033100033F8FEF7AEF902E0304600F02DF8002059
:10332000B1E770B5002500F023F805460F480468A2
:10333000284600F021F8204670BD70B504460025EF
:1033400000F016F8054609480460284600F014F815
:1033500070BD0000510000205200002064000020D9
:103360005600002055000020A00B00208000002007
:10337000EFF3108072B6704780F3108870471D48D5
:103380001D490170002080F309881C48012101704B
:103390001B484FF08051016062B6FEE718484FF0BD
:1033A00080510160704716484FF0805101607047AE
:1033B00072B6EFF3098028B1203880E8F00F114988
:1033C0000968086000B5104880475DF804EB0F48B5
:1033D0000F490A7802700B480E490A6802601068AB
:1033E00090E8F00F203080F309884EF0040E62B6AA
:1033F000704700BF20ED00E00000FFFF5E000020EE
:1034000004ED00E064000020D534000853000020E3
:10341000540000206C0000203048802102E0491E4A
:10342000002204C00029FAD12D4A2E4B1A607047A1
:1034300070477047704770477047704770B50446D3
:1034400010464FF080750560051F28462C60264EFB
:10345000051F28462E604FF01236051F28462E60A5
:103460004FF00336051F28462E604FF00236051F29
:1034700028462E607610051F28462E60051F284618
:1034800029604FF01136051F28462E604FF0103688
:10349000051F28462E604FF00936051F28462E606E
:1034A0004FF00836051F28462E604FF00736051FDF
:1034B00028462E604FF00636051F28462E604FF036
:1034C0000536051F28462E604FF00436051F284696
:1034D0002E6070BD704770477047000028180020AC
:1034E000241A002084000020913100087047000059
:1034F0000FB4044910B503AA029800F083F910BC78
:103500005DF814FB300000200FB41CB5074B06AA71
:103510007B4469460090059800F05BF900206946FD
:1035200000F06AF91CBC5DF814FB0000E502000025
:1035300070B5044685690068C10601D5302600E0F3
:103540002026C00707D070BDD4E90121304690473E
:10355000206A401C20626D1EF6D570BD70B5044611
:1035600085690078C00707D170BDD4E9012120200A
:103570009047206A401C20626D1EF6D570BD000089
:1035800070B504460D4621461068AFF300802188CF
:10359000090502D50F4A7A4402E00E4A7A440E32F7
:1035A000002104F1240305E000F00F060009965DF8
:1035B0005E54491C0028F7D120780023000704D569
:1035C000702D02D009B1022311322046BDE87040AF
:1035D00000F0A1B8000400002DE9F05F8946044620
:1035E0004FF0000ADFF824B1FB44C0F820A02046C9
:1035F000E168884700287DD0252806D0D4E901213C
:103600009047206A401C2062F1E700255F46204673
:10361000E16888472028064607DB312E05D2B81915
:1036200010F8200C08B10543F1E7A80701D525F0F3
:103630000405C4F81CA00027C4F818A02A2E09D03D
:10364000304600F023F938B304EB8708303EC8F861
:10365000186019E059F8041B204604EB87029161B9
:10366000E1688847012F064618D1E069002820DA72
:1036700025F020051DE0D8F8180000EB800006EBCF
:1036800040003038C8F818002046E16888470646F0
:1036900000F0FCF80028EED1012F0AD02E2E08D120
:1036A0002046E16888477F1C0646022F45F020052A
:1036B000C4DBA069002803DA404245F00105A0619F
:1036C000E80701D025F01005A6B1A6F141001928A0
:1036D00002D8203645F400654A463146204625602A
:1036E0004D46FCF75FFD60B1012807D0ED1D25F0C8
:1036F000070000E007E000F1080978E705F1040998
:1037000075E730467AE7206ABDE8F09FD6030000EF
:103710007047704770472DE9F0470D46994692462D
:10372000044600F124080168880604D5E06921F008
:103730001001216000E00120A84201DD471B00E0EC
:103740000027A1697A1902EB0900081AA061207804
:10375000C00602D42046FFF7EBFE002608E0D4E9BD
:1037600001211AF806009047206A401C761C20624E
:103770004E45F4DB2078C0060AD52046FFF7D8FE78
:1037800006E0D4E9012130209047206A401C2062E5
:10379000381EA7F10107F4DC07E0D4E9012118F88D
:1037A00005009047206A401C2062281EA5F10105F3
:1037B000F3DC2046FFF7D2FE2078000602D5022077
:1037C000BDE8F0870120FBE701694A1C0261087827
:1037D000704700B58FB0CDE9013100210591054951
:1037E0007944CDE9031011466846FFF7F5FE0FB0A6
:1037F00000BD0000E5FFFFFF0A6802F8010B0A6048
:1038000070470000074B70B50D467B44FFF7E1FFA2
:1038100004462846FDF73DFC10B14FF0FF3070BD67
:10382000204670BD2FD8FFFF754600F02BF8AE463E
:1038300005006946534620F00700854618B020B5BC
:10384000FCF7D8FCBDE820404FF000064FF0000721
:103850004FF000084FF0000B21F00701AC46ACE838
:10386000C009ACE8C009ACE8C009ACE8C0098D46A5
:10387000704710B50446AFF300802046BDE8104005
:10388000FCF7A2BC00487047281A002030380A28EC
:1038900001D20120704700207047000001000200A3
:1038A0000100030001000200010004000100020009
:1038B00001000300010002000100050001000200F8
:1038C00001000300010002000100040001000200E9
:1038D00001000300010002000100060001000200D7
:1038E00001000300010002000100040001000200C9
:1038F00001000300010002000100050001000200B8
:1039000001000300010002000100040001000200A8
:103910000100030001000200010007000100020095
:103920000100030001000200010004000100020088
:103930000100030001000200010005000100020077
:103940000100030001000200010004000100020068
:103950000100030001000200010006000100020056
:103960000100030001000200010004000100020048
:103970000100030001000200010005000100020037
:103980000100030001000200010004000100020028
:1039900001000300010002000100303132333435F0
:1039A000363738394142434445464030580030317B
:1039B0003233343536373839616263646566403096
:1039C0007800040000080000000000000002000170
:1039D00000001000F43900080000002088000000FA
:1039E0006C0100087C3A000888000020002C0000D0
:1039F0008801000800A24A04000000000000000046
:103A00000102030406070809000000000102030484
:103A1000010203040607080902040608000000006A
:103A20000000000000000000000000000000000096
:103A30000000000000000000000000000000000086
:103A40000000000000000000000000000000000076
:103A50000000000000000000000000000000000066
:103A60000000000000000000000000000000000056
:0C3A70000000000000000000000000004A
:0400000508000131BD
:00000001FF
